:020000040800F2
:10000000000B002005010008F52D0008ED2D00086B
:10001000F12D0008910C0008DD34000800000000FC
:10002000000000000000000000000000712E000829
:10003000950C0008000000000D2E0008732E00082B
:100040001F0100081F0100081F0100081F01000810
:100050001F0100081F0100081F0100081F01000800
:100060001F0100081F0100081F0100081F010008F0
:100070001F0100081F0100081F0100081F010008E0
:100080001F0100081F0100081F0100081F010008D0
:100090001F0100081F0100081F010008B10C000823
:1000A0001F0100081F0100081F0100081F010008B0
:1000B000D52E00081F0100081F0100081F010008BD
:1000C0001F0100081F0100081F0100081F01000890
:1000D0001F010008CD3400081F0100081F0100089F
:1000E000990C00081F0100081F010008DFF810D05C
:1000F00000F0C0FC0048004701650008AFF3008035
:10010000000B00200648804706480047FEE7FEE750
:10011000FEE7FEE7FEE7FEE7FEE7FEE7FEE7FEE7B7
:100120007D2E0008ED0000082DE9F0410024061B9B
:10013000254671F1000605DA01240027D0EB0700FF
:1001400067EB0101161E73F1000605DA0027D2EBFA
:100150000702012567EB030300F0C8FA86460E4646
:1001600017469C46AC4204D00025D0EB050E65EB4B
:10017000010624B10020D2EB000760EB030C7046AF
:1001800031463A466346BDE8F081D2B201E000F85C
:10019000012B491EFBD270470022F6E710B513462B
:1001A0000A4604461946FFF7F0FF204610BD30B559
:1001B00004460020034600E05B1C934203D2E05C4F
:1001C000CD5C401BF8D030BDF0B480EA0102D40F02
:1001D0004200B2EB410F02D20246084611464A00E5
:1001E00042D0C30DDDB2C1F3C752AD1A202D35DAAE
:1001F000C1F3160141F4000204B15242C5F12006D8
:1002000002FA06F12A411044B3EBD05F23D0C4B107
:10021000012DA0EBC35009DCF0BC4FF0004202EA14
:10022000C352DBB200F5000000F0AABA400000F1B2
:10023000807000EBC350A0F1807040EAD17049009B
:1002400009E0490841EAC071A0EBC35000F5000085
:10025000400800EBC350F0BC00F089BA61420122B3
:1002600002EB4101001BF6E7F0BC704781F0004152
:10027000AAE780F00040A7E780EA010210B502F08B
:100280000043400022D04A001FD0010E01EB126152
:10029000C0F35600C2F3560240F4000042F40002DC
:1002A000A0FB022000047F39140400D0401C50EA57
:1002B000124001D44000491EC2B20C0604EBD0101B
:1002C000401C4008802A02D003E0002010BD20F02E
:1002D0000100002900DA0020184310BD30B480EA84
:1002E000010202F0004530F0004221F0004013D03E
:1002F00090B1C30DD40DC2F31601C0F31600E41A79
:1003000041F4000140F400027D34914201D3641CA9
:1003100000E04900002C02DA30BC002070474FF4A6
:1003200000000023914201D3891A034340084FEA99
:100330004101F7D151B1914202D14FF0004105E0A6
:1003400002D24FF0010101E06FF0010103EBC45054
:10035000284430BC00F00BBA2DE9FE4F81EA0304BB
:1003600004F0004421F0004100944FF0000B23F012
:10037000004350EA01045ED052EA03045BD0C3F3A9
:100380000A54C1F30A552C44A4F2F3340194A0FB9F
:100390000254C1F3130141F48011C3F3130343F476
:1003A000801301FB024400FB034E840A970A44EACF
:1003B000815447EA8357A4FB076802958D0A05FB21
:1003C00007854FEA932C04FB0C542705029D4FEA46
:1003D000065847EA1637B5EB08056EEB070C870E93
:1003E000920E47EA811742EA8312A7FB0201B6EB9D
:1003F0000B0164EB00042B0D43EA0C335E1844EB55
:100400001C50DA465146E7FB0201C5F313044FEADC
:100410000B3343EA14534FEA0432019C43EA0603C8
:10042000A4F10C040294009CCDE900B400F0E5F9BD
:1004300003B0BDE8F08F00200146F9E72DE9F04D4B
:1004400081EA030404F0004B21F0004514464FF00C
:10045000000A23F0004150EA050220D054EA0102CC
:100460001DD0C5F30A570246C5F31303C1F31300A9
:10047000C1F30A5640F4801543F48013A7EB060835
:10048000101BD64608F2FD3873EB050002D308F1C5
:10049000010801E092185B41B8F1000F03DA002077
:1004A0000146BDE8F08D00204FF4801106468446D9
:1004B0000EE0171B73EB050705D3121B63EB050357
:1004C00006434CEA010C49084FEA300092185B41A0
:1004D00050EA0107EDD152EA030012D082EA04008B
:1004E00083EA0501084305D0101BAB4106D2012267
:1004F000002306E000224FF0004302E06FF001020B
:1005000053101AEB06004CEB085110EB0A0041EBBC
:100510000B01BDE8F04D00F061B9C10F80EAE07059
:100520000844CA079623002100F02AB99623002226
:10053000114600F025B90EB5C10F80EAE0700844FD
:10054000CA07002140F233438DE80E000A460B46ED
:1005500000F053F903B000BD0EB540F233410291F3
:100560000021CDE900110A460B4600F046F903B020
:1005700000BD00F0004220F00040C10DC0F31600A5
:1005800040F400007F2901DA00207047962903DC3F
:10059000C1F19601C84001E096398840002AF4D0A4
:1005A0004042704720F00040C10DC0F3160040F4F7
:1005B00000007F2901DA00207047962903DCC1F191
:1005C0009601C840704796398840704770B5C1F3AE
:1005D0000A5201F000450024C1F3130140F2FF3339
:1005E00041F480119A4201DA002070BD40F2334399
:1005F0009A42A2F2334203DC524200F0A8F800E033
:1006000090402C43F1D0404270BD00F0004230F0E9
:1006100000400AD0C10D01F56071C0F3160042EA36
:100620000151C2084007114370470020014670473E
:1006300030B5041E71F1000404DB4FF00044404269
:1006400064EB0101141E73F1000405DB1C464FF03E
:100650000043524263EB0403994208BF904230BD0D
:1006600001F0004330B421F0004150EA010206D00D
:100670000A0DA2F56072C1F31301002A02DC30BC3E
:1006800000207047440F44EAC104C100E01830BCA8
:1006900000EBC25000F06BB8002801DBC0F1004055
:1006A000002901DBC1F1004181427047002801DBD4
:1006B000C0F10040002901DBC1F1004188427047D0
:1006C00030B50B46014600202022012409E021FA22
:1006D00002F59D4205D303FA02F5491B04FA02F51F
:1006E0002844151EA2F10102F1DC30BD2DE9F05FB6
:1006F0000546002092469B46884606468146402491
:100700001BE0284641464746224600F020F8534663
:100710005A46C01A914110D311461846224600F09D
:10072000BBF92D1A67EB01084F4622460120002134
:1007300000F0B2F917EB00094E41201EA4F10104AC
:10074000DFDC484631462A464346BDE8F09F202A72
:1007500004DB203A21FA02F00021704721FA02F36B
:10076000D040C2F120029140084319467047002949
:10077000A8BF7047401C490008BF20F00100704727
:1007800010B4B0FA80FC00FA0CF050EA010404BF87
:1007900010BC704749B1CCF1200421FA04F411FADD
:1007A0000CF118BF012121430843A3EB0C01CB1D21
:1007B0004FEA00614FEA102042BF002010BC704792
:1007C00000EBC35010440029A4BF10BC7047401C6C
:1007D000490008BF20F0010010BC704710B5141E7E
:1007E00073F1000408DA401C41F1000192185B41EA
:1007F0001A4301D120F0010010BD2DE9F04D9246C1
:100800009B4611B1B1FA81F202E0B0FA80F22032D7
:10081000904600F041F904460F4640EA0A0041EADA
:100820000B0153465A46084313D0114653EA0100C0
:1008300019D0C8F140025046FFF789FF05460E4621
:1008400050465946424600F027F9084305D001209A
:1008500004E020463946BDE8F08D0020054346EA15
:10086000E0762C4337430A986305E40AA0EB0800BE
:100870000022FD0A44EA47540A3002D5002001460E
:10088000E9E7010510196941DDE9084500196941E9
:10089000BDE8F04DA2E72DE9FE4F804681EA030056
:1008A000C00F0C46009021F0004123F00045B8EB4A
:1008B0000200A94105D24046214690461C460B46FF
:1008C000024623F00040104347D0270DC7F30A002B
:1008D000C3F30A510290401A019040286BDAC3F327
:1008E000130040F4801B0098924620B10023D2EB05
:1008F000030A63EB0B0B01985946C0F140025046C6
:1009000000F0CAF806460D4650465946019A00F0D6
:10091000D2F810EB08006141002487EA115284EA02
:10092000E7731A4340D0009A62B3019A012A4FEA52
:10093000075215DC001B61EB02014FF0004202EA96
:100940000752CDE90042001C41F5801132462B468A
:10095000FFF753FF03B0BDE8F08F40462146F9E7AB
:10096000001B61EB0201001C41F5801300185B4184
:100970002018A2F5001747EB030140EAD570B6191D
:100980006D4111E06D084FEA360645EAC0754FEA41
:100990000752001B61EB0201001C41F58011490860
:1009A0004FEA30000019514132462B4603B0BDE8F2
:1009B000F04FFFF713BF0098012240000023D0EB57
:1009C000020263EBE073009821464FEAE074B8EB53
:1009D000000061EB0401E9E783F000435BE781F08D
:1009E000004158E770B521F0004303430CD0C1F338
:1009F0000A550024D5EB040564EB0403D617AD1AA1
:100A0000B34102DB0020014670BD201841EB0251CA
:100A100070BDC1F30A52C1F3130140F2FF3341F438
:100A200080119A4202DA00200146704740F23343B7
:100A30009A42A2F2334202DC5242FFF788BE00F033
:100A40002BB8000030B5041E71F1000404DB4FF038
:100A50000044404264EB0101141E73F1000405DB05
:100A60001C464FF00043524263EB04038B4208BF25
:100A7000824230BD064C074D06E0E06840F00103BD
:100A800094E8070098471034AC42F6D3FFF732FBE6
:100A900088A50008A8A50008202A04DB203A00FA4F
:100AA00002F1002070479140C2F1200320FA03F3C5
:100AB000194390407047202A06DBCB17203A41FAB1
:100AC00002F043EAE07306E041FA02F3D040C2F1DB
:100AD000200291400843194670472DE9F04D00234C
:100AE0001A461B1A8A4103DB00200146BDE8F08D3F
:100AF000C1F30A52C1F3130141F480154FF0000B0A
:100B0000D10702D100186D41521E0027044640F261
:100B1000FF11384601EB620A3E468046024600203D
:100B20004FF48011FFF713FEC2197141BB1846EB59
:100B30000100B4EB030C75EB000C04D3E41A65EB75
:100B4000000517460E46241908F101006D41804644
:100B50003428E3DDF91946EB0600091BA84103D24E
:100B60004FF0FF32134601E0002213461BEB070053
:100B700046EB0A51BDE8F04DFFF730BE70B50446B4
:100B800000252068806800F00100F0B120688068CE
:100B900020F001002168886000F0CCFE05460EE0E0
:100BA00000F0C8FE401B022809D9A06A40F01000DE
:100BB000A062E06A40F00100E062012070BD2068A0
:100BC000806800F001000028EAD10020F6E700006C
:100BD00038B504460025002000902068806800F0A9
:100BE000010080BB2068806840F0010021688860B7
:100BF000164800681649B0FBF1F0009002E000983A
:100C0000401E009000980028F9D100F093FE0546A0
:100C100013E000F08FFE401B02280ED9A06A40F0BE
:100C20001000A062E06A40F00100E06200BF002016
:100C300084F8240000BF012038BD2068806800F0DF
:100C400001000028E5D00020F6E7000000000020A9
:100C500040420F002DE9F04705460C460A4801685E
:100C60002046FFF709FB8046084801682846FFF741
:100C700003FB81464146FFF7A7FA0746FFF779FCD9
:100C800006463046BDE8F0876C0000206800002072
:100C900000BFFEE77047000010B54FF4805000F031
:100CA0009DFC4FF480500149086010BD14040140C0
:100CB00010B5202000F092FC20200149086010BDF2
:100CC000140401402DE9F04F85B0164800F0FCFAFD
:100CD0000A21144800F040FA124800F05FF980B28F
:100CE0000190FFF739FC4FF066320F4BCDE902015E
:100CF000FFF732FB804600220C4BFFF72DFB064628
:100D000000220B4BFFF728FB04460022094BFFF79C
:100D100095FB8246FFF75AFC0490049805B0BDE8A5
:100D2000F08F00008802002066660A40000026401E
:100D300000408F400000B040F8B504460026002077
:100D4000009000BF94F82400012801D10220F8BDD2
:100D5000012084F8240000BF2046FFF70FFF06465D
:100D6000002E62D1A06A20F4885040F00200A062F8
:100D7000022000F0BBFE30490968B1FBF0F04000F2
:100D8000009002E00098401E009000980028F9D1E1
:100D90002046FFF71DFF2068806840F008002168AA
:100DA000886000F0C7FD054611E000F0C3FD401B60
:100DB0000A280CD9A06A20F0020040F01000A062BE
:100DC00000BF002084F8240000BF0120BFE7206896
:100DD000806800F008000028E7D12068806840F0B3
:100DE00004002168886000F0A5FD054611E000F0D0
:100DF000A1FD401B0A280CD9A06A20F0020040F097
:100E00001000A06200BF002084F8240000BF012071
:100E10009DE72068806800F004000028E7D1A06A00
:100E200020F0020040F00100A06200BF002084F822
:100E3000240000BF30468AE70000002038B5024693
:100E400000230020009000BF92F82400012801D167
:100E5000022038BD012082F8240000BF486807281E
:100E600012D21068406B0C79641E04EB84051F24B9
:100E7000AC40A0430D796D1E05EB85050C68AC40B8
:100E800020431468606327E048680D2812D2106878
:100E9000006B0C79E41F04EB84051F24AC40A043D5
:100EA0000D79ED1F05EB85050C68AC4020431468F7
:100EB000206311E01068C06A0C790D3C04EB8405D6
:100EC0001F24AC40A0430D790D3D05EB85050C6852
:100ED000AC4020431468E06208680A2812D3106806
:100EE000C0680C780A3C04EB44050724AC40A043DE
:100EF0000D780A3D05EB45058C68AC40204314682D
:100F0000E0600FE0106800690C7804EB44050724EA
:100F1000AC40A0430D7805EB45058C68AC40204300
:100F2000146820610868102802D00868112827D1A9
:100F3000174C1068A0421ED11068806800F40000B1
:100F4000F0B91068806840F400001468A060086878
:100F5000102815D10F4800680F4CB0FBF4F000EBDF
:100F600080004000009002E00098401E0090009831
:100F70000028F9D104E0906A40F02000906201233B
:100F800000BF002082F8240000BF184661E700007F
:100F9000002401400000002040420F000146086884
:100FA000C06C70472DE9F04104460027002500265B
:100FB000A84614B90120BDE8F081A06810B1207DD9
:100FC00000B100BFA06A30B90020E06284F82400BC
:100FD000204600F089F82046FFF7D0FD0746A06ABA
:100FE00000F01000002873D1002F71D1A06A20F406
:100FF000885040F00200A062E16960680843217BEC
:1010000040EA41000643A068B0F5807F02D0A068A6
:10101000012802D14FF4807000E000200543207DBC
:10102000012811D1207B38B9A069401E4FF400611E
:1010300041EA4030054307E0A06A40F02000A0628A
:10104000E06A40F00100E0622068406820F46940F6
:10105000284321684860206880682149084030435F
:1010600021688860A068B0F5807F02D0A068012860
:1010700002D14FF4807000E00020B0F5807F03D1F2
:10108000208A401E4FEA00582068C06A20F4700091
:1010900040EA08002168C862206880681149084059
:1010A000B04208D10020E062A06A20F0020040F0C7
:1010B0000100A06211E0A06A20F0020040F01000E0
:1010C000A062E06A40F00100E062012705E0FFE76E
:1010D000A06A40F01000A062012738466BE70000CC
:1010E000FDF7E1FFFE0E1FFF10B586B0044617495D
:1010F0002068884227D100BF00BF1548806940F4AE
:101100000070134988610846806900F400700190FE
:1011100000BF00BF00BF00BF00BF0846806940F0AD
:10112000080088610846806900F00800019000BF4F
:1011300000BF00BF012002900320039002A90548D0
:1011400000F05AFA00BF06B010BD000000240140B4
:1011500000100240000C0140F8B504460D46002680
:1011600000200090002700F0E5FB0646206880681C
:1011700000F4807050B1A06A40F02000A06200BF6F
:10118000002084F8240000BF0120F8BD20684068DA
:1011900000F48070F8B92068C06A00F47000D0B91B
:1011A00012E0681C80B125B100F0C4FB801BA8428E
:1011B0000AD9A06A40F00400A06200BF002084F8B1
:1011C000240000BF0320E0E72068006800F0020070
:1011D0000028E6D050E0022000F088FC364909687B
:1011E000B1FBF0F021680969344A114091B92168D6
:1011F000C9689211114069B921680969304A1140E2
:1012000031B92168C9689211114009B9142117E058
:10121000292115E021680969294A114021B921686D
:10122000C9689211114041B121680969254A1140EC
:1012300029B92168C968114009B9542100E0FC218D
:1012400000FB01F715E0681C80B125B100F072FBCE
:10125000801BA8420AD9A06A40F00400A06200BF27
:10126000002084F8240000BF03208EE70098401C73
:1012700000900098B842E6D36FF012002168086031
:10128000A06A40F40070A0622068806800F46020CA
:10129000B0F5602F0DD1207B58B9A06A20F4807082
:1012A000A062A06A00F4805018B9A06A40F0010062
:1012B000A062002069E70000000000202449922479
:1012C000922449124992240070B50446002500BFBB
:1012D00094F82400012801D1022070BD012084F877
:1012E000240000BF2046FFF773FC0546002D77D190
:1012F000A06A40F20121884340F48070A0623C491A
:101300002068884208D13B48006800F4702008B982
:10131000012002E0002000E0012078B1A06A20F462
:101320008010A0622068406800F4806000B3A06A6A
:1013300020F4005040F48050A06219E0A06A40F40C
:101340008010A0622B49091F2068884203D02849D9
:101350002068884204D12748006800F4806000E0DB
:10136000002028B1A06A20F4005040F48050A06210
:10137000A06A00F4805020B1E06A20F00600E0622C
:1013800001E00020E06200BF002084F8240000BFDC
:10139000C01E216808602068806800F46020B0F5F5
:1013A000602F16D112492068884208D11148006880
:1013B00000F4702008B9012002E0002000E00120C4
:1013C00038B12068806840F4A000216888600CE093
:1013D00006E02068806840F480102168886004E09E
:1013E00000BF002084F8240000BF284675E70000F5
:1013F000002801400424014070B50446002594F8FB
:101400002100022803D00420A063012548E02068C1
:10141000006820F00E00216808602068006820F055
:101420000100216808601F492068884201D101201D
:1014300026E01C4914312068884201D110201FE0A9
:10144000184928312068884201D1801518E01549D3
:101450003C312068884201D1801411E0114950319B
:101460002068884202D14FF4803009E00D49643190
:101470002068884202D14FF4801001E04FF0807064
:10148000084908394860012084F8210000BF002085
:1014900084F8200000BF606B10B12046616B884764
:1014A000284670BD0800024070B50446202C03D0C9
:1014B000B4F5805F75D120E020213C4800F02CFA83
:1014C000D0B93B48007808B9012000E00020384935
:1014D00008701021354800F01FFA30B100BF00221B
:1014E0001021324800F020FA06E000BF012210214E
:1014F0002E4800F019FA00BF54E02E48007808B9D1
:10150000012000E000202B49087006F083FC06F063
:1015100067FC2848007818B10A2006F08DFC70BDE1
:101520002549B1F900104842FEF7F7FF0646234867
:10153000006880F0004531462846FFF78BFB2049C4
:101540000860204801682048006802F023F81F491D
:1015500008601B480068096808441D49086018486D
:1015600000681A49096808441A4908601A4A514231
:101570001748006801F03FFC15490860164A5142BF
:101580001448006801F037FC1249086001F0B2FD10
:1015900028B9104801680E48006805F08BF801E092
:1015A000FFE700BF00BF00BFB9E70000000801402F
:1015B00050000020510000203000002024000020B6
:1015C000540000203C00002038000020580000207B
:1015D00060000020640000200CE5FFFF10B5044609
:1015E00004480068204020B1024804602046FFF70C
:1015F0005BFF10BD140401402DE9F84703460022AB
:1016000094466EE14FF0010808FA02F4D1F8008028
:1016100008EA0400A0427DD1DFF8DCA2D1F8048002
:10162000A8EB0A09D0453AD014DCB8F1030F50D02A
:1016300009DCB8F1000F31D0B8F1010F1CD0B8F1BE
:10164000020F49D120E0B8F1110F18D0B8F1120FF4
:1016500042D11EE0B9F5881F25D006DCB9F5803FE0
:1016600020D0B9F5801F37D11AE0B9F5001F18D086
:10167000B9F5041F30D117E0D1F80CC02DE0D1F836
:101680000C8008F1040C28E0D1F80C8008F1080C5B
:1016900023E0D1F80C8008F10C0C1EE000BF00BF65
:1016A00000BF00BF00BF00BFD1F80880B8F1000F35
:1016B00002D14FF0040C0BE0D1F80880B8F1010F13
:1016C00003D14FF0080C1C6102E04FF0080C5C6184
:1016D00003E04FF0000C00E000BF00BFFF2801D87E
:1016E000984601E003F104084646FF2802D84FEA75
:1016F000820803E0A2F108084FEA88084746D6F8B6
:1017000000804FF00F0909FA07F928EA09080CFAD6
:1017100007F900E088E048EA0908C6F80080D1F837
:10172000048008F08058B8F1805F7DD100BFDFF8F9
:10173000CC81D8F8188048F00108DFF8C091C9F8CA
:101740001880C846D8F8188008F00108CDF8008045
:1017500000BF00BF4FEAB9384FEA920958F8295044
:101760004FEA82784FEA18794FF00F0808FA09F823
:1017700025EA0805DFF88881434502D14FF00008CB
:1017800016E0DFF88081434502D14FF001080FE0F9
:10179000DFF87481434502D14FF0020808E0DFF81A
:1017A0006C81434502D14FF0030801E04FF004087B
:1017B0004FEA82794FEA197908FA09F848EA0505EB
:1017C000DFF84C814FEA920948F82950D1F804809B
:1017D00008F48038B8F5803F0AD1DFF83881D8F8AE
:1017E000008048EA0008DFF82C91C9F8008009E081
:1017F000DFF82081D8F8008028EA0008DFF814918B
:10180000C9F80080D1F8048008F40038B8F5003F2A
:1018100010D1DFF8008108F10408D8F8008048EA08
:101820000008DFF8F09000E05AE009F10409C9F877
:1018300000800DE0DFF8DC8008F10408D8F80080B3
:1018400028EA0008DFF8CC9009F10409C9F8008003
:10185000D1F8048008F48018B8F5801F0ED1DFF8A5
:10186000B48008F10808D8F8008048EA0008DFF8DA
:10187000A49009F10809C9F800800DE0DFF8948010
:1018800008F10808D8F8008028EA0008DFF88490FA
:1018900009F10809C9F80080D1F8048008F400189B
:1018A000B8F5001F0ED1DFF86C8008F10C08D8F8ED
:1018B000008048EA0008DFF85C9009F10C09C9F8DB
:1018C00000800DE0DFF84C8008F10C08D8F80080AB
:1018D00028EA0008DFF83C9009F10C09C9F80080FB
:1018E000521CD1F8008028FA02F8B8F1000F7FF4FA
:1018F00089AEBDE8F887000000001110001002401A
:1019000000080140000C014000100140001401409B
:101910000800014000040140024693680B400BB1EF
:10192000012000E0002070470AB1016101E00B04D2
:1019300003617047014800687047000014000020F0
:101940000348006803490978084401490860704762
:10195000140000201C00002010B50848006840F06A
:10196000100006490860032000F0ACF80F2000F0DA
:1019700007F800F02BF8002010BD00000020024006
:1019800070B504460E4800784FF47A71B1FBF0F060
:101990000C490968B1FBF0F5284600F09BFC08B142
:1019A000012070BD102C07D200222146501E00F0ED
:1019B0004BF80548046001E00120F2E70020F0E761
:1019C0001C000020000000201800002008B500BF07
:1019D0001348806940F00100114988610846806918
:1019E00000F00100009000BF00BF00BF0846C069C2
:1019F00040F08050C8610846C06900F080500090F7
:101A000000BF00BF052000F05DF800BF0549486831
:101A100020F0E06040F00070486000BF08BD0000AA
:101A2000001002400000014001460846002809DB82
:101A300000F01F0301229A4043099B0003F1E023B9
:101A4000C3F8002100BF70472DE9F05F80460D46C6
:101A50001646002701F01AFE074639462A46334645
:101A600001F00700C0F1070ABAF1040F02D94FF0E4
:101A7000040A01E0C0F1070AD14600F1040ABAF1F4
:101A8000070F02D24FF0000A01E0A0F1030AD4468A
:101A90004FF0010A0AFA09FAAAF1010A0AEA020A4F
:101AA0000AFA0CFA4FF0010B0BFA0CFBABF1010B2D
:101AB0000BEA030B4AEA0B042146404601F0EEFD17
:101AC000BDE8F09F00BF00F00702064B19684FF613
:101AD000FF031940044B0B4343EA0221014B1960F9
:101AE00000BF70470CED00E00000FA052DE9F0435F
:101AF00085B006463BA30FCB01AC0FC43DA00068E8
:101B000000904FF00008002500270024A146012E78
:101B100030D0022E55D0102E5ED137484468006870
:101B200000F0807000B301A8C4F38341475C04F463
:101B3000803070B130484068C0F340401DF80080EC
:101B400004F4803040B12D48B0FBF8F000FB07F5FD
:101B500002E02B4807FB00F52748406800F48000AE
:101B6000B0F5800F01D1A94603E068000321B0FB66
:101B7000F1F932E02048046A04F44070B0F5807F47
:101B800005D104F0020010B14FF4004918E004F44C
:101B90004070B0F5007F07D11748406A00F002009E
:101BA00010B149F640490BE004F44070B0F5407FB5
:101BB00006D11148006800F4003008B14FF2244902
:101BC0000BE000F0FBF80C494968C1F38131491C76
:101BD0004900B0FBF1F900E000BF00BF484605B086
:101BE000BDE8F08302030405060708090A0B0C0D83
:101BF0000E0F1010010200000010024000127A00C7
:101C000000093D0070B504460D460CB9012070BDB9
:101C10005A48006800F00700A8420ED257480068F2
:101C200020F007002843554908600846006800F086
:101C30000700A84201D00120E9E7207800F0020067
:101C400002281DD1207800F00400042805D14C485A
:101C5000406840F4E0604A494860207800F008009D
:101C6000082805D14648406840F46050444948601F
:101C70004348406820F0F000A168084340494860AC
:101C8000207800F0010078B36068012806D13C4854
:101C9000006800F4003090B90120B8E760680228BD
:101CA00006D13748006800F0007040B90120AEE767
:101CB0003348006800F0020008B90120A7E7304867
:101CC000406820F00300616808432D494860FFF731
:101CD00031FE064609E0FFF72DFE801B41F28831F8
:101CE000884202D9032092E707E02548406800F0C7
:101CF0000C006168B0EB810FEDD12048006800F066
:101D00000700A8420ED91D48006820F007002843AC
:101D10001A4908600846006800F00700A84201D090
:101D2000012074E7207800F00400042807D114484B
:101D3000406820F4E060E168084311494860207879
:101D400000F00800082808D10D48406820F46050D1
:101D5000216940EAC1000A49486000F03FF808499B
:101D60004968C1F30311074A515CC840064908603D
:101D700006480068FFF704FE002048E70020024004
:101D800000100240748000080000002018000020AD
:101D900001480068704700000000002000B5FFF710
:101DA000F7FF04494968C1F30221034A515CC84066
:101DB00000BD0000001002408480000800B5FFF75D
:101DC000E7FF04494968C1F3C221034A515CC84096
:101DD00000BD00000010024084800008F0B585B00E
:101DE0000FF26C0C9CE8E01001A8A0E8E0101CA524
:101DF0002D68009500210022002300240020194DA9
:101E0000696801F00C05F5B1042D02D0082D19D137
:101E100001E0154819E001ADC1F38346AC5D01F462
:101E2000803555B10F4D6D68C5F340451DF805204F
:101E30000D4D6543B5FBF2F302E00C4D04FB05F3D9
:101E4000184602E000BF084800BF00BF05B0F0BD63
:101E500002030405060708090A0B0C0D0E0F1010EB
:101E6000010200000010024000127A0000093D004B
:101E7000F8B504460CB90120F8BD207800F0010047
:101E8000002878D0F848406800F00C0004280CD0F6
:101E9000F548406800F00C00082811D1F24840686D
:101EA00000F48030B0F5803F0AD1EF48006800F4BC
:101EB000003000285FD0606800285CD10120DBE79B
:101EC00000BF6068B0F5803F06D1E748006840F485
:101ED0008030E549086028E0606858B9E248006849
:101EE00020F48030E04908600846006820F4802033
:101EF00008601AE06068B0F5A02F0BD1DA480068DE
:101F000040F48020D84908600846006840F48030DA
:101F100008600AE0D448006820F48030D2490860A4
:101F20000846006820F48020086000BF606888B11F
:101F3000FFF700FD054606E0FFF7FCFC401B6428A8
:101F400001D9032098E7C848006800F40030002851
:101F5000F2D010E0FFF7EEFC054606E0FFF7EAFCE2
:101F6000401B642801D9032086E7BF48006800F4BD
:101F700000300028F2D1207800F00200022857D16A
:101F8000B948406800F00C0050B1B748406800F014
:101F90000C00082818D1B448406800F4803098B983
:101FA000B148006800F0020020B12069012801D08A
:101FB000012061E7AC48006820F0F800616940EA60
:101FC000C100A949086033E02069E8B10120A749B0
:101FD0000860FFF7AFFC054606E0FFF7ABFC401BCF
:101FE000022801D9032047E79F48006800F002005B
:101FF0000028F2D09C48006820F0F800616940EAAF
:10200000C1009949086013E0002098490860FFF773
:1020100091FC054606E0FFF78DFC401B022801D924
:10202000032029E79048006800F002000028F2D160
:10203000207800F0080008282DD1A069B8B101204F
:102040008B490860FFF776FC054606E0FFF772FC57
:10205000401B022801D903200EE78348406A00F0A4
:1020600002000028F2D0012000F0D2FE13E0002090
:102070007F490860FFF75EFC054606E0FFF75AFC63
:10208000401B022801D90320F6E67748406A00F099
:1020900002000028F2D1207800F00400042873D157
:1020A00000277148C06900F0805070B900BF6E48C9
:1020B000C06940F080506C49C8610846C06900F0B2
:1020C0008050009000BF00BF01276A48006800F4FC
:1020D0008070B0B96748006840F480706549086056
:1020E000FFF728FC054606E0FFF724FC401B6428A8
:1020F00001D90320C0E65F48006800F48070002822
:10210000F2D000BFE068012806D15748006A40F0CD
:1021100001005549086227E0E06858B95248006A52
:1021200020F00100504908620846006A20F00400CF
:10213000086219E0E06805280BD14B48006A40F0BE
:102140000400494908620846006A40F0010008623C
:102150000AE04548006A20F0010043490862084649
:10216000006A20F00400086200BFE068A0B1FFF739
:10217000E1FB054609E0FFF7DDFB401B41F288313A
:10218000884202D9032077E622E03748006A00F04F
:1021900002000028EFD012E0FFF7CCFB054608E074
:1021A000FFF7C8FB401B41F28831884201D9032068
:1021B00062E62D48006A00F002000028F0D1012FED
:1021C00005D12948C06920F080502749C86100BF67
:1021D000E069C8B32448406800F00C00082860D0CB
:1021E000E069022848D1002020490866FFF7A2FBD9
:1021F000054606E0FFF79EFB401B022801D903209D
:102200003AE61948006800F000700028F2D1206A10
:10221000B0F5803F07D11448406820F40030A16831
:10222000084311494860D4E9080108430E49496848
:1022300021F4741108430C49486001200B490866D9
:10224000FFF778FB054607E03DE0FFF773FB401B17
:10225000022801D903200FE60348006800F000704F
:102260000028F2D02FE0000000100240000042429F
:102270008004424200700040002014490866FFF7C5
:1022800059FB054606E0FFF755FB401B022801D924
:102290000320F1E50E48006800F000700028F2D13C
:1022A00011E0E069012800D1E6E50948466806F436
:1022B0008031206A814204D106F47011606A814243
:1022C00001D00120D8E50020D6E500000000424200
:1022D0000010024070B504462546681EB0F1807FAC
:1022E00001D301200FE0681E4FF0E02148610F216B
:1022F0004FF0FF3001F0D2F900204FF0E02188616B
:1023000007200861002070BD7047704710B5024675
:1023100000BF92F83C00012801D1022010BD01202D
:1023200082F83C0000BF022082F83D00106843683C
:102330001068846823F070030868034324F0800465
:10234000486804431068436010688460012082F884
:102350003D0000BF002082F83C0000BF00BFDDE769
:102360002DE9F04104460D4614B90120BDE8F08185
:1023700094F83D0028B9002084F83C00204600F085
:1023800045F8022084F83D002068806844F2070187
:10239000884321688860211D206800F0A3FD206823
:1023A000D0F80880206886692068076A286840EAB3
:1023B000080840F203308643A969A86840EA012072
:1023C000064340F60C4086434FF2F0008643E9692D
:1023D000E86840EA0120064328690001296A40EACA
:1023E0000130064327F022076969686840EA011056
:1023F00007432068C0F8088020688661206807626B
:10240000012084F83D000020B0E7000010B586B040
:10241000044600200290039004900590284920680B
:10242000884223D100BF2748C06940F002002549F7
:10243000C8610846C06900F00200019000BF00BFFB
:1024400000BF0846806940F0040088610846806942
:1024500000F00400019000BF00BFC02002900020E7
:102460000390049002A91848FFF7C6F8174920689E
:10247000884223D100BF1348806940F00800114909
:1024800088610846806900F00800019000BF00BF25
:1024900000BF0846C06940F00400C8610846C06932
:1024A00000F00400019000BF00BFC0200290002097
:1024B0000390049002A90648FFF79EF806B010BDED
:1024C00000040040001002400008014000080040E5
:1024D000000C014030B504460D4615B1042D0CD159
:1024E00005E001220021206800F036FD10E0012205
:1024F0000421206800F030FD0AE00122002120685C
:1025000000F02AFD01220421206800F025FD00BF13
:1025100000BF2068006840F00100216808600020CA
:1025200030BD704710B5044620680069C0F3400014
:10253000D8B12068C068C0F34000B0B16FF00200AD
:1025400021680861012020772068806900F003007D
:1025500018B12046FFF7E5FF05E0204600F0ADF892
:10256000204600F093F90020207720680069C0F32E
:102570008000D8B12068C068C0F38000B0B16FF0AF
:10258000040021680861022020772068806900F437
:10259000407018B12046FFF7C4FF05E0204600F068
:1025A0008CF8204600F072F900202077206800693E
:1025B000C0F3C000D8B12068C068C0F3C000B0B19B
:1025C0006FF0080021680861042020772068C06946
:1025D00000F0030018B12046FFF7A3FF05E02046F6
:1025E00000F06BF8204600F051F9002020772068B9
:1025F0000069C0F30010D8B12068C068C0F30010B3
:10260000B0B16FF0100021680861082020772068C1
:10261000C06900F4407018B12046FFF782FF05E062
:10262000204600F04AF8204600F030F900202077DC
:102630002068006900F0010058B12068C06800F00F
:10264000010030B16FF0010021680861204600F000
:1026500045F920680069C0F3C01058B12068C0680F
:10266000C0F3C01030B16FF08000216808612046CF
:10267000FFF74AFE20680069C0F3801058B1206857
:10268000C068C0F3801030B16FF04000216808616D
:10269000204600F097F920680069C0F3401058B157
:1026A0002068C068C0F3401030B16FF0200021688E
:1026B00008612046FFF729FE10BD704770B504463B
:1026C0000D46164600BF94F83C00012801D10220B7
:1026D00070BD012084F83C0000BF022084F83D005A
:1026E00036B1042E1BD0082E31D00C2E5ED145E021
:1026F0002946206800F042FC2068806940F008000C
:10270000216888612068806920F004002168886160
:1027100020688069296908432168886147E0294663
:10272000206800F05BFC2068806940F4006021684C
:1027300088612068806920F4806021688861206851
:102740008069296940EA0120216888612FE02946D3
:10275000206800F077FC2068C06940F0080021681C
:10276000C8612068C06920F004002168C861206841
:10277000C069296908432168C86118E029462068B2
:1027800000F094FC2068C06940F400602168C861D2
:102790002068C06920F480602168C8612068C06931
:1027A000296940EA01202168C86100E000BF00BF3C
:1027B000012084F83D0000BF002084F83C0000BFE9
:1027C00000BF85E710B504460CB9012010BD94F890
:1027D0003D0028B9002084F83C00204600F00CF8A9
:1027E000022084F83D00211D206800F07BFB0120C1
:1027F00084F83D000020E9E710B58AB004461F497F
:102800002068884238D100200690079008900990EF
:1028100000BF1B48806940F00400194988610846E0
:10282000806900F00400019000BF00BF4FF4106009
:10283000069002200790099006A91248FEF7DCFED8
:1028400000BF0F48806940F008000D4988610846C4
:10285000806900F00800019000BF00BF4FF4704095
:10286000029001200390002004900320059002A90B
:102870000548FEF7C1FE00BF0AB010BD002C0140A4
:102880000010024000080140000C014070470000A9
:1028900070B504460E4601223146206800F05CFB0C
:1028A0000D492068884201D1012000E0002028B1B4
:1028B0002068406C40F400402168486420688068CB
:1028C00000F00705062D05D02068006840F00100E3
:1028D00021680860002070BD002C014070B50446DE
:1028E0002068B0F1804F5AD12D48007860BB042099
:1028F00000F0A2FA40422B4908602B4801682948A1
:10290000006800F0EDFD0546FDF707FE2749086069
:1029100008460068FDF72DFE0646254A514200F0A4
:102920006AFA0546FDF7F9FD204908600846006887
:10293000FDF71FFE05461D480068FDF71AFE064616
:10294000294603F0B7FE2AE000BF00224FF4804181
:102950001848FEF7E9FF00BF00BF00224FF4004116
:102960001448FEF7E1FF00BF00BF00224FF4005102
:102970001048FEF7D9FF00BF00BF00224FF480517E
:102980000C48FEF7D1FF00BF002008490860054948
:10299000086009490860094908600949086070BD74
:1029A00050000020A8000020AC0000208C00002077
:1029B0000CE5FFFF000C0140900000208800002083
:1029C00094000020704770472DE9F04704462068C6
:1029D00005682068C668206847694FF00008C1464E
:1029E00005F00F08B8F1000F0AD105F0200038B14A
:1029F00006F0200020B1204600F0DAFBBDE8F087A9
:102A0000B8F1000F6DD007F0010018B906F490700E
:102A1000002866D005F0010030B106F4807018B1CE
:102A2000E06B40F00100E06305F0040030B107F016
:102A3000010018B1E06B40F00200E06305F0020015
:102A400030B107F0010018B1E06B40F00400E06322
:102A500005F0080030B107F0010018B1E06B40F05C
:102A60000800E063E06B68B305F0200028B106F0D1
:102A7000200010B1204600F09BFB20684069C0F3A5
:102A80008019E06B00F0080010B9B9F1000F22D0F6
:102A9000204600F06DFB2068406900F04000B0B1B6
:102AA0002068406920F0400021684861606B50B1A7
:102AB0001748616B4863606BFEF79EFC10B1606B5A
:102AC000416B88470CE02046FFF77DFF08E0204679
:102AD000FFF779FF04E02046FFF775FF0020E06371
:102AE0008CE705F0800030B106F0800018B1204678
:102AF00000F082FC82E705F0400030B106F04000B3
:102B000018B1204600F044FB78E700BF76E70000EC
:102B10005D31000810B504460CB9012010BDA06954
:102B200000B100E000BF94F8390028B9002084F813
:102B30003800204600F028F8242084F83900206866
:102B4000C06820F400502168C860204600F084FB73
:102B50002068006920F4904021680861206840697D
:102B600020F02A00216848612068C06840F40050C5
:102B70002168C8600020E063202084F8390084F8D0
:102B80003A000020CAE7000010B586B00446294983
:102B9000206888424BD100BF00BF2748806940F4BD
:102BA0008040254988610846806900F48040019092
:102BB00000BF00BF00BF00BF00BF0846806940F0F3
:102BC000040088610846806900F00400019000BF9D
:102BD00000BF00BF00BF00BF0846806940F004008E
:102BE00088610846806900F00400019000BF00BFC2
:102BF00000BF48150290022003900120049003209A
:102C0000059002A90D48FEF7F7FC4FF48060029092
:102C100000200390049002A90848FEF7EDFC25204F
:102C2000FEF702FF032211462520FEF70DFF06B036
:102C300010BD0000003801400010024000080140B3
:102C400010B5034693F83A0020282FD101B10AB9F4
:102C5000012010BD00BF93F83800012801D10220E7
:102C6000F7E7012083F8380000BF99629A85DA857A
:102C70000020D863222083F83A0000BF002083F8A8
:102C8000380000BF1868C06840F480701C68E060BD
:102C90001868406940F001001C6860611868C068ED
:102CA00040F020001C68E0600020D2E70220D0E75E
:102CB00010B5044612492068884220D14FF47A7337
:102CC00001221049204600F025F80E4800784628D9
:102CD00006D100200C49087001200C49087009E059
:102CE00008480078422805D10020084908700120D2
:102CF00005490870012203490548FFF7A1FF10BDEF
:102D0000003801400E000020100000200F000020BD
:102D1000B80100202DE9F84304460D4616461F462B
:102D20004FF0000994F8390020285CD105B116B99C
:102D30000120BDE8F88300BF94F83800012801D1D4
:102D40000220F6E7012084F8380000BF0020E0638D
:102D5000212084F83900FEF7EDFD8146A684E68443
:102D60002BE0E08C401EE084A068B0F5805F16D1B7
:102D70004B46002280212046009700F071FB08B1ED
:102D80000320D6E7A846B8F80000C0F30800216881
:102D90004860206908B9AD1C0FE06D1C0DE04B4682
:102DA000002280212046009700F05AFB08B1032042
:102DB000BFE715F8010B21684860E08C0028D0D1EE
:102DC0004B46002240212046009700F049FB08B105
:102DD0000320AEE7202084F8390000BF002084F8EB
:102DE000380000BFA5E70220A3E7704700BFFEE759
:102DF00000BFFEE7704703468B4201DD084670477F
:102E0000934201DA1046FAE71846F8E770470000E7
:102E100008B508490968C9084FF47A72B1FBF2F1A4
:102E20004143009100BF00BF00994A1E0092002953
:102E3000F9D108BD000000200146032902D0042971
:102E40000ED106E0084A126810B20022064B1A6042
:102E500008E0064A126810B20022044B1A6001E032
:102E6000002000BF00BF7047240400402408004039
:102E7000704710B5FEF764FD10BD000011480068F2
:102E800040F001000F490860084640680E490840BC
:102E90000C494860084600680C4908400949086028
:102EA0000846006820F4802008600846406820F446
:102EB000FE0048604FF41F008860C80304490860A2
:102EC00070470000001002400000FFF8FFFFF6FE10
:102ED00008ED00E010B50248FFF724FB10BD00002C
:102EE0003802002010B50268184B984208D0B0F1A3
:102EF000804F05D0164B984202D0164B984203D112
:102F000022F070024B681A43104B984208D0B0F17F
:102F1000804F05D00E4B984202D00E4B984203D101
:102F200022F44072CB681A4322F080034C6943EAD2
:102F3000040202608B68C3620B688362034B984291
:102F400001D10B6903630123436110BD002C0140D3
:102F5000000400400008004030B501F01F050124C6
:102F600004FA05F3046A9C430462046A01F01F0535
:102F700002FA05F52C43046230BD000030B5056A45
:102F800025F001050562026A4368846924F0700433
:102F900024F003040D682C4322F002028D682A43BA
:102FA0000D4DA84206D100BF22F00802CD682A4389
:102FB00022F00402084DA84207D123F4807323F4C1
:102FC00000734D692B438D692B43436084614D68C9
:102FD0004563026230BD0000002C014030B5056A37
:102FE00025F010050562026A4368846924F4E04410
:102FF00024F440740D6844EA052422F020028D6810
:1030000042EA05120E4DA84207D100BF22F080020D
:10301000CD6842EA051222F04002094DA84209D1CA
:1030200023F4806323F400634D6943EA85038D69CB
:1030300043EA8503436084614D688563026230BD65
:10304000002C014030B5056A25F480750562026ADE
:103050004368C46924F0700424F003040D682C4311
:1030600022F400728D6842EA05220F4DA84207D172
:1030700000BF22F40062CD6842EA052222F4806299
:10308000094DA84209D123F4805323F400534D691C
:1030900043EA05138D6943EA05134360C4614D6833
:1030A000C563026230BD0000002C014030B5056AE6
:1030B00025F480550562036A4468C26922F4E0423F
:1030C00022F440720D6842EA052223F400538D6811
:1030D00043EA0533064DA84204D124F480444D69E7
:1030E00044EA85144460C2614D680564036230BDE2
:1030F000002C014070B51448006841F658318842F0
:1031000001DA012070BD11480068FDF77EFA21F058
:103110000041044600220E4BFDF78AFA0BD30D48FE
:103120000068FDF772FA21F0004104460022084BC6
:10313000FDF77EFA01D20120E4E707480078012874
:1031400000D1DFE70020DDE7400000202400002060
:1031500000003E40280000205000002070B50546C9
:103160006C6A0020E085E0842046FFF72CFC70BDEF
:103170000168C96821F490710268D16001684969E9
:1031800021F0010102685161202180F83A10704756
:1031900010B504462068C06820F040002168C8606F
:1031A000202084F839002046FFF71FFE002010BDC4
:1031B00070B5044694F83A0022284AD1A068B0F5C8
:1031C000805F13D1A56A206940B920684068C0F3C8
:1031D00008002880A06A801CA06219E0206840686E
:1031E000C0B22880A06A401CA06211E0206938B9F2
:1031F00020684068C1B2A26A501CA062117007E04A
:103200002068406800F07F01A26A501CA062117023
:10321000E08D401E80B2E085C8B92068C06820F00B
:1032200020002168C8602068C06820F48070216890
:10323000C8602068406920F00100216848612020B2
:1032400084F83A002046FFF733FD002070BD0020CF
:10325000FCE70220FAE7000070B50446216809691E
:1032600021F44051E2681143226811612269A1688A
:103270001143626941EA02052168C96841F20C62A2
:10328000914329432268D1602168496921F4407142
:10329000A269114322685161564A2168914254D172
:1032A000FEF78CFD00EBC00101EB0011626892009B
:1032B000B1FBF2F100EBC00202EB001263689B006D
:1032C000B2FBF3F26423B2FBF3F202EBC20303EBB3
:1032D0000212A1EB8201322202EB01116422B1FB46
:1032E000F2F101F0F00100EBC00202EB00126368A2
:1032F0009B00B2FBF3F26423B2FBF3F201EB021288
:1033000000EBC00101EB001163689B00B1FBF3F11E
:1033100000EBC00303EB00136668B600B3FBF6F3E3
:103320006426B3FBF6F303EBC30606EB0313A1EB32
:103330008301322303EB01116423B1FBF3F101F0AC
:103340000F0111442268916053E0FEF727FD00EB66
:10335000C00101EB001162689200B1FBF2F100EBD9
:10336000C00202EB001263689B00B2FBF3F264231D
:10337000B2FBF3F202EBC20303EB0212A1EB8201F8
:10338000322202EB01116422B1FBF2F101F0F001F3
:1033900000EBC00202EB001263689B00B2FBF3F289
:1033A0006423B2FBF3F201EB021200EBC00101EB6C
:1033B000001163689B00B1FBF3F100EBC00303EB6A
:1033C00000136668B600B3FBF6F36426B3FBF6F3AE
:1033D00003EBC30606EB0313A1EB8301322303EBDC
:1033E00001116423B1FBF3F101F00F0111442268D4
:1033F000916070BD00380140014691F839002128E4
:103400002CD18868B0F5805F0FD10A6A1088C0F3AC
:1034100008000B685860086918B9086A801C0862BF
:1034200009E0086A401C086205E00B6A581C086243
:1034300018780B685860C88C401E80B2C88458B990
:103440000868C06820F080000B68D8600868C06811
:1034500040F040000B68D860002070470220FCE775
:103460002DE9F04104460D4617469846069E21E098
:10347000701CF8B12EB1FEF75DFAA0EB0800B04267
:1034800018D92068C06820F4D0702168C86020680E
:10349000406920F0010021684861202084F839004B
:1034A00084F83A0000BF002084F8380000BF0320F1
:1034B000BDE8F081206800682840A84201D10120C1
:1034C00000E00020B842D3D00020F1E710B5024858
:1034D000FFF77AFA10BD0000B801002000BFFEE738
:1034E0002DE9FC5F04468946A9EB0400FDF715F8B9
:1034F000224908602248016820480068FCF7B6FEAF
:103500000090FDF782F807461E480CC83846FCF7C5
:1035100023FF0546FDF7A4F88346184801681A48BA
:103520000068FCF751FE1849086014480068FDF770
:103530006CF8054615480CC82846FCF70DFF0746F1
:10354000FDF78EF8019012480068FCF7E6FF074689
:103550005946FCF739FE06460199FCF735FE05464B
:10356000FDF707F8824605480068054908600848E5
:10357000C0F800A05046BDE8FC9F00008800002075
:10358000940000209800002090000020A00000205F
:10359000B00000202DE9F04104460D466119484273
:1035A000FCF7BBFF1F490860084601681E48006819
:1035B000FCF70AFE1C4908601C491B480068FDF71F
:1035C00075F802D219481849086019491648006868
:1035D000FDF762F802D216481349086015480168E1
:1035E00011480068FCF748FE80460E48006880F0ED
:1035F0000047114801683846FCF73EFE0646414642
:10360000FCF734FE0D4908600D480078012802D10E
:1036100000200549086009480068FCF7AAFFBDE8DA
:10362000F08100007C0000208000002000401C464B
:1036300000401CC6740000207000002078000020AC
:10364000500000200FB4054B10B503A9044A02989E
:1036500000F078F910BC5DF814FB0000ED5D000887
:1036600008000020490050EAC12018BF04204A0D7C
:1036700018BF40F0010040F2FF72B2EB515F08BF8B
:1036800040F00200012808BF05207047024800688A
:10369000C0F30220704700000CED00E010B50028D8
:1036A00004DB0A07130E054A135406E00A07140E3A
:1036B000034A00F00F031B1FD45410BD00E400E0C8
:1036C00018ED00E02DE9F0414F1E00EBC701044664
:1036D000D1E9000115461E4637F006020DD02A46F4
:1036E0003346FCF739FE7F1E04EBC703D3E9002302
:1036F000FDF7D1F837F00602F1D1022F25D0042FC3
:1037000013D0062F18BFBDE8F0812A463346FCF7D8
:1037100023FED4E90A23FDF7BEF82A463346FCF718
:103720001BFED4E90823FDF7B6F82A463346FCF71A
:1037300013FED4E90623FDF7AEF82A463346FCF71C
:103740000BFED4E90423FDF7A6F82A463346FCF71E
:1037500003FED4E90223FDF79EF82A463346FCF720
:10376000FBFDD4E90023BDE8F041FDF794B8012248
:10377000FDF738B9FDF78FB8002213461046114601
:10378000FCF75CBE024A00201107FDF72BB90000D0
:1037900001FDFFFF02E008C8121F08C1002AFAD18C
:1037A00070477047002001E001C1121F002AFBD1C1
:1037B000704700000149086070470000EC000020DD
:1037C0002DE9FF5F82B00021DDE90430020DDDF854
:1037D00040B0034318D044F61050A2F2FF324243E7
:1037E0001514119801281FD0A5EB0B00401C5FEAAF
:1037F000000A4FF000064E4FDFF83891B0465046B1
:1038000015D5CAF1000413E0119801244AA3012838
:1038100001D16FEA0B010298119AC0E90031C0E9A9
:10382000024206B0BDE8F09FCBF10000DFE704469E
:103830000021404A491842EB0450CDE9001012E043
:10384000E00707D032463B4640464946FCF784FD38
:103850008046894632463B4610461946FCF77CFDB9
:1038600006460F466410002CEAD1DDE90401DDE9CB
:103870000023BAF1000F06DAFCF76EFD42464B4614
:10388000FCF76AFD05E0FCF7D9FD42464B46FCF724
:10389000D5FD04460E460022284BFCF7C9FE03D88E
:1038A0004FF0FF30014607E00022254B204631460D
:1038B000FCF7F1FFFDF7ADF8102409E0002C0ADB5E
:1038C0000A220023FCF712FF039B30321A55641EB4
:1038D00050EA0102F2D1641C039AC4F111031444AA
:1038E000119A012A03D0012208430DD10AE00843AE
:1038F00004D000204FF0110B119072E7A3EB0B05E1
:103900006D1E0DE05B4504DD4FF0000205F1010581
:1039100004E003DA4FF00002A5F10105002AECD023
:1039200002981199C0E90231C0E9004579E7000029
:10393000000014400000F03F300000000000F043A1
:103940000000E03F2DE9FF4F95B09A4688460646B5
:103950000025EEE1252877D100242746F94A0121E8
:10396000039400E0044316F8013F203B01FA03F002
:103970001042F7D130782A2811D06FF02F03307819
:10398000A0F13002092A16D8039A44F0020402EB8F
:10399000820203EB42021044761C0390EFE758F8D2
:1039A000042B0392002A03DA504244F4005403909B
:1039B00044F00204761C30782E2816D116F8010F38
:1039C00044F004042A280DD06FF02F023078A0F1C3
:1039D0003003092B09D807EB870302EB4303C71811
:1039E000761CF3E758F8047B761C30786C280FD0EF
:1039F00006DC4C2817D068280DD06A2814D104E0C2
:103A0000742810D07A280FD10DE044F400140AE095
:103A100044F4801401E044F440147278824202D1EC
:103A200004F58014761C761C307866280BD013DCE5
:103A3000582877D009DC002875D04528F6D04628CC
:103A4000F4D047281AD193E118E0632835D06428D0
:103A500079D0652812D18BE1702873D008DC6728F3
:103A6000F1D069286FD06E280DD06F2806D1ACE058
:103A700073282CD0752874D0782853D052461799C3
:103A800090476D1C54E1C4F30250022809D003286A
:103A90000DD0D8F8001004280DD00D6008F10408EE
:103AA00046E1D8F80010EA17C1E90052F6E7D8F865
:103AB00000100D80F2E70D70F0E718F8041B8DF888
:103AC000001000208DF80100EB46012003E058F8BB
:103AD00004BB4FF0FF3061074FF0000102D40DE04E
:103AE00009F101018946B9420FDA8145F8DB1BF87B
:103AF00009100029F4D108E009F101018946814249
:103B0000FADB1BF809100029F6D103985346A0EB05
:103B1000090721463846179A00F080FA284400EB3E
:103B2000090507E044E008E10DE01BF8010B5246EF
:103B300017999047B9F10109F7D253462146384603
:103B4000179AF2E039E00A21C4F302524FF0000B59
:103B50000091022A06D058F8040BC117032A09D095
:103B60000AE023E008F1070020F00702F2E8020172
:103B7000904605E000B2C117042A01D140B2C11736
:103B8000002906DA0A460021404261EB02012D229B
:103B900002E0220504D52B228DF80420012203E047
:103BA000E20701D02022F7E7914657E00A2100E022
:103BB00010214FF0000B00910BE010214FF0000B93
:103BC00044F004040827009103E008204FF0000BA4
:103BD0000090C4F30252022A05D058F8040B0021C9
:103BE000032A08D008E008F1070020F00702F2E8F5
:103BF0000201904603E080B2042A00D1C0B24FF027
:103C0000000922072AD53278702A07D0DDF800C0D3
:103C10008CF0100C5CEA0B0C05D00EE040228DF805
:103C20000420012208E050EA010306D030238DF879
:103C300004308DF8052002229146009B83F0080392
:103C400053EA0B030AD150EA010201D1620705D5FC
:103C500030228DF804204FF001097F1E3278582A57
:103C600004D039A20C920CAA02920BE03BA2F9E715
:103C70005B46009AFCF73AFD0C9B9B5C029A521E35
:103C80000292137050EA0102F2D1029804A9081AB4
:103C900000F1200B600702D524F4803400E00127F6
:103CA0005F4502DDA7EB0B0000E0002000EB0B01FD
:103CB000009003984944401A0390E00306D4534609
:103CC0002146179A039800F0A9F90544002706E059
:103CD00001A85246C05D179990476D1C7F1C4F4547
:103CE000F6DBE0030CD553462146179A039800F003
:103CF00095F9054404E030205246179990476D1C11
:103D00000099481E00900029F5DC08E0029802990D
:103D100052460078491C0291179990476D1CBBF1DF
:103D20000001ABF1010BF1DC5BE100F065F905444A
:103D3000761C307800287FF40DAE19B02846BDE817
:103D4000F08F000009280100303132333435363726
:103D500038396162636465660000000030313233D7
:103D60003435363738394142434445460000000077
:103D7000600700D4062708F1070020F00700F0E8EC
:103D80000223804603F0004C5FEA0C0001D097A0AC
:103D900009E0200501D596A005E0E00701D095A037
:103DA00001E0AFF24C001390307823F00043652817
:103DB0000CD006DC452809D046281DD047287FD1E5
:103DC0003BE0662818D067287AD136E00021112F11
:103DD00001DB112000E0781CCDE9000104A90CA84A
:103DE000FFF7EEFCDDE90D010C9A4FF0000B07F137
:103DF0000109109200914EE04FF000400097CDE98C
:103E0000011004A90CA8FFF7DBFCDDE90D020C9BF7
:103E10000F994FF0000B91461093009211B9791C45
:103E200000EB0109B7EB090003D4C0F1FF3B07F138
:103E30000109A9EB0700019042E0012F00DA0127F8
:103E40000021112F01DD112000E03846CDE90001ED
:103E500004A90CA8FFF7B4FCDDE90D010C9A009150
:103E60004FF0000BB946109221070FD4009A4A4533
:103E700003DA914601E0A9F10109B9F1010F05DD6D
:103E8000109AA9F10101515C3029F4D0B84202DA4C
:103E900010F1040F03DA0121CDE9011010E0002830
:103EA00003DC8344A9EB000102E0411C494500DD2D
:103EB0008946A0EB0B00401C01904FF0004002909F
:103EC000200705D40198484502DB4FF0FF300190F0
:103ED00000208DF84B0002980DF14B07B0F1004F18
:103EE00025D002200C902B200D90029800280CDA8F
:103EF000404202902D200D9007E00A210298FCF725
:103F0000DFFB3031029007F8011D0C99481E0C9020
:103F10000029F2DC02980028EFD1791E0D98087074
:103F2000307800F0200040F0450007F8020D11A89D
:103F3000C01BC01D02901398007800B1012000EB57
:103F40000901019801EBE071029801440398401ABD
:103F5000401E0390E00306D453462146179A039867
:103F600000F05CF805441398007818B15246179990
:103F700090476D1CE00323D553462146179A0398BA
:103F800000F04CF805441BE0BBF1000F07DB009884
:103F9000584504DD1098179910F80B0001E01799A7
:103FA00030205246904701980BF1010B401E05F15D
:103FB0000105019004D12E205246179990476D1C9F
:103FC000B9F10001A9F10109DEDC05E017F8010BE8
:103FD0005246179990476D1C0299481E029000297D
:103FE000F4DC53462146179A03989EE62D00000004
:103FF0002B000000200000002DE9F04104460025C0
:104000001E461746880404D405E039462020B047F0
:104010006D1C641EF9D52846BDE8F0812DE9F041FC
:10402000044600251E469046C80301D5302700E00F
:104030002027880404D505E041463846B0476D1C6A
:10404000641EF9D52846BDE8F08100002DE9FE4F39
:1040500006460F460025684601F0D6FE002442E0E1
:1040600056F8240057F82410A0EB010ABAF1000F0B
:1040700001DB514601E0CAF100010846FCF74DFAA8
:1040800083464FF08F41FCF729F980465DF8240004
:104090000021FCF701FB16D05DF824104046FCF728
:1040A0001DF982464FF07E51FCF7E0F8814629F079
:1040B000004A0F48416A5046FCF7F8FA12D2012034
:1040C000A04005430EE00A48C1694046FCF7E4FA07
:1040D00005D30748016A4046FCF7E8FA02D20120FE
:1040E000A0400543641C032CBADB2846BDE8FE8FC4
:1040F000B48000080EB50020009001900290114895
:1041000011490860002110488160017301758161C7
:104110004FF46021C16100200B49486001210A4829
:104120000161FCF73FFF082000900120019007206B
:10413000029069460448FCF781FE0348FCF7FCFD49
:104140000EBD000000240140880200202DE9F04D42
:104150008D4F21F0004A86B005460C46BA452ADB51
:10416000AAEB070028430AD08848824501DC1AD10F
:10417000CDB106B02846BDE8F04DFFF7F8BA844A45
:10418000844B2846FCF7E8F807460E46824A834BE4
:1041900028462146FCF7E0F806B03A463346BDE82B
:1041A000F04DFCF778BB0120FFF704FB06B0BDE83B
:1041B000F04DFFF7E1BA7A48824542DABAF1795F09
:1041C0000BDA2846FFF74EFA042808BFFFF7DAFAA1
:1041D000284606B02146BDE8F08D2A460B4610461B
:1041E000FCF7BAF8834602466E480E460B46062197
:1041F0007844FFF767FA5A463346FCF7ADF8804635
:1042000069488A465A46334604217844FFF75AFAE9
:104210005A463346FCF7A0F800223B46FCF73BFB2E
:1042200002460B4640465146FCF708F92A4623460B
:10423000FCF792F806B02A462346BDE8F04DFCF79D
:104240002ABB284624F0004100223D463B46FCF7AD
:10425000C6FB4FF0FF32FCF7C5FB0646024653484B
:104260000F460B4606217844FFF72CFA32463B46B0
:10427000FCF772F8CDE900014D4832463B46042177
:104280007844FFF71FFA32463B46FCF765F80022F8
:104290002B46FCF700FB834602913046394603F07B
:1042A00079FE804643480D46504517DCDDE90001A4
:1042B0005A46029BFCF7C2F842462B46FCF74CF8E4
:1042C00042462B46FCF7E7FA0122FCF78BFB304A0B
:1042D000304BFCF781FB304A304B4CE04FF0000A8A
:1042E00052460B464046FCF7D6FACDE9031052463B
:1042F0002B4610461946FCF72FF832463B46FCF792
:104300006EFBDDE90332FCF799F806460F46DDE95E
:1043100000015A46029BFCF791F883460091012266
:1043200030463946FCF75EFB194A1A4BFCF757FB3F
:1043300006460F46012240462946FCF753FB5A46E3
:10434000009BFCF709F832463B46FCF745FB064666
:104350000F46012250462946FCF744FB0E4DDFF87C
:1043600058802A464346FCF73AFB32463B46FCF768
:1043700036FB2A464346FCF732FB002CD8BF81F0BF
:10438000004106B0BDE8F08D0000F03F0000F07F76
:10439000075C143326A6913C182D4454FB21F93FA9
:1043A0000000E03FA4620000BA6200002E6200003C
:1043B000446200003333EF3FFB21E93F2DE9F84F22
:1043C00004460D4621F0004000917349814211DC02
:1043D0007249884201DC06D12CB120462946BDE84D
:1043E000F84FFFF7C4B96E48002DCCBF6D496E4938
:1043F000BDE8F88F6D49814211DD6D498142D8BF1A
:104400004FF0FF366DDD20462946FFF72BF90428D3
:1044100008BFFFF7B7F920462946BDE8F88F654980
:10442000654F25F00045814233DD6449814219DD45
:10443000002632464FF0804320462946FCF72BFAEF
:1044400080468A46012220462946FCF7CBFA002204
:104450003B46FCF7C1FA42465346FBF7EFFF0446E2
:104460000D463EE001260022BA463B46204629463C
:10447000FCF711FA80460F46002253462046294693
:10448000FCF7AAFA42463B46FBF7D8FF04460D4626
:1044900027E04B4981421BDDDFF828A102260022DC
:1044A000534620462946FBF757FF00223B46FCF7C0
:1044B000F2F980460F460022534620462946FCF773
:1044C0008BFA42463B46FBF7B9FF04460D4608E02F
:1044D000032622462B4600203B49FBF7AFFF04464C
:1044E0000D4622462B4610461946FBF735FF8B46F4
:1044F000824602460B46FBF72FFF0746024633482B
:1045000088460B4606217844FFF7DCF852465B46A6
:10451000FBF722FF82462E488B463A46434605214A
:104520007844FFF7CFF83A464346FBF715FF0246BB
:104530000B46002E504659460CDAFCF7ACF92246E1
:104540002B46FBF709FF01B022462B46BDE8F04F92
:10455000FCF745BAFCF79FF922462B46FBF7FCFE19
:104560001C4A7A4402EBC603D3E90023FCF734FA71
:1045700022462B46FCF730FA174A7A4402EBC60370
:10458000D3E90023FCF72BFA009A002AB8BF81F088
:104590000041BDE8F88F0000000010440000F07FEB
:1045A000182D4454FB21F93FFB21F9BF0000DC3FEB
:1045B0000000203E0000F33F0000F03F0000E63F17
:1045C000008003400000F83F0000F0BF466000009C
:1045D00004600000A25F00006A5F00002DE9F04D5A
:1045E0009446CCF1000423F000464CEA0404594FF1
:1045F00046EAD4749A46884621F00042BC4206D866
:10460000454240EA050442EAD474BC4204D9BDE8FC
:10461000F04D6246FFF7AEB8AAF14055A5F17F65AF
:1046200055EA0C040BD0022404EAAA744A4DDFF8C0
:104630002CE144EAD87452EA000B04D00CE0BDE847
:10464000F04DFFF7BBBE002C14BF012CBDE8F08D70
:10465000022C30D0032C32D056EA0C0B0AD0BE42CA
:1046600020D1BA4209D126F0804622F0804233465A
:10467000114617E000291ADB25E0DFF8E4B0FB441F
:10468000002C04BFDBE90001BDE8F08D012C02BF66
:10469000DBE9000181F00041BDE8F08D022C0AD079
:1046A000032C0CD0BA4212D1B8F1000F0BDA2A4811
:1046B0002C49BDE8F08D28462B49BDE8F08D2846F1
:1046C0007146BDE8F08D24482849BDE8F08D921B65
:1046D00012153C2AC4BF204F244E10DCBAF1000F43
:1046E000BEBF12F13C0F00273E4608DB6246FBF7D7
:1046F000A5FE21F00041FFF761FE07460E4694B18A
:10470000012C08BF86F000460DD0194A194B022C27
:104710003846314615D0FCF75FF92A46BDE8F04D22
:10472000114BFCF759B90022134638463146FCF7C5
:1047300089F904BF0220FFF73DF838463146BDE84D
:10474000F08DFCF749F92A46BDE8F04D064BFCF721
:1047500046B900000000F07F182D4454FB2109C029
:10476000FE5E0000FB21F9BFFB210940FB21F93F60
:10477000075C143326A6A13C2DE9FF4F97B00C46E9
:1047800015461E460027B846B946BA4612A813A9D0
:1047900016AB0EAACDE9001014A9179800F074FE0C
:1047A00018B101201BB0BDE8F08FBDF84C0000F43B
:1047B000807000287ED00E98FBF7AFFE83464FF046
:1047C0009D41FBF78BFD07460F98FBF7A6FE83463E
:1047D0004FF09D41FBF782FD80461098FBF79DFE50
:1047E00083464FF09D41FBF779FD81461198FBF719
:1047F00094FE83464FF09D41FBF770FD824639469B
:104800004FF08040FBF738FD49460590FBF734FD3B
:10481000414607904FF04040FBF72EFD5146059072
:10482000FBF72AFD06900799FBF7CEFC8346FBF7C2
:10483000ECFECDE90801FFF789FC4FF06632544BDE
:10484000CDE90A01FBF788FDCDE90C01FBF708FF74
:10485000286049464FF08040FBF70EFD4946029024
:10486000FBF70AFD414604904FF04040FBF704FD82
:1048700041460290FBF700FD03900499FBF7F6FC1C
:104880004FF07E510590FBF79FFC8346FBF7BDFE82
:10489000CDE9080139464FF08040FBF7EDFC414679
:1048A0000390FBF7E9FC494605904FF08040FBF789
:1048B000E3FC00E068E051460390FBF7DDFC049068
:1048C0000599FBF781FC8346FBF79FFECDE90601C6
:1048D000DDE90823FFF782FE4FF066322C4BCDE96D
:1048E0000A01FBF739FDCDE90C01FBF7B9FE2060A9
:1048F00051465046FBF7C0FC494605904846FBF739
:10490000BBFC414603904046FBF7B6FC394601909C
:104910003846FBF7B1FC00900199FBF755FC02907B
:104920000399FBF7A3FC04900599FBF79FFC8346D2
:10493000FBF76BFECDE9080151463846FBF79CFCBE
:10494000494604904046FBF797FC03900499FBF717
:104950003BFC4FF080410590FBF78EFC8346FBF754
:1049600054FECDE90601DDE90823FFF737FE4FF0DD
:104970006632074BCDE90A01FBF7EEFCCDE90C01ED
:10498000FBF76EFE306001E001200BE7002009E735
:1049900066A64C402DE9F041002001F0F5FFC4B2BD
:1049A000782002F0DDFD2044C4B2782001F0DAFE68
:1049B0002044C4B2C82002F085FD2044C4B200F0F7
:1049C00057FD2044C4B2194D284601F035FD064676
:1049D000E81C01F031FD46EAC00086B2A81D01F0D6
:1049E0002BFD46EA801086B200BF3746384600F0FD
:1049F0009BFF2044C4B240F2731000F0E1FB20445E
:104A0000C4B2C82000F0C0FE2044C4B2012002F0AD
:104A100055FC2044C4B200F063FA2044C4B214B17F
:104A20000120BDE8F0810020FBE70000E00000204D
:104A300010B504460CB9012010BDFCF77BFF2060C7
:104A40000020F9E700B585B00020019002900390A6
:104A5000049000BF00BF1D48806940F004001B495E
:104A600088610846806900F00400009000BF00BF24
:104A700000BF0846806940F00100886108468069EF
:104A800000F00100009000BF00BF00BF104948685F
:104A900020F0E06040F00070486000BF00BF4FF4BD
:104AA000004001900120029003900320049001A98E
:104AB0000848FCF7A1FD00BF00224FF40041054863
:104AC000FCF732FF00BF05B000BD0000001002403F
:104AD000000001400008014010B500BF00224FF463
:104AE00000711148FCF720FF00BF00F01FF800BF65
:104AF000012211020C48FCF717FF00BF00F016F866
:104B000000BF00224FF480710748FCF70DFF00BF83
:104B100000F00CF800BF012251020348FCF704FF2B
:104B200000BF00F003F810BD000C014010B50120DB
:104B300000F004FB10BD000000B585B0002001901E
:104B400002900390049000BF00BF1A48806940F0B3
:104B50000800184988610846806900F00800009044
:104B600000BF00BF00BF00BF00BF0846806940F023
:104B7000080088610846806900F00800009000BFC6
:104B800000BF00BF88150190012002900390032010
:104B9000049001A90848FCF72FFD4FF40070019024
:104BA0001120029001A90448FCF726FD00F0B6F898
:104BB00005B000BD00100240000C014010B500BF60
:104BC000012251020C48FCF7AFFE00BFFFF7AEFF19
:104BD00000BF012211020848FCF7A6FE00BFFFF744
:104BE000A5FF00BF00224FF480710348FCF79CFE34
:104BF00000BFFFF79BFF10BD000C014070B50546DC
:104C0000002400261EE06006040E00BF01221102EF
:104C10001148FCF789FE00BFFFF788FF4FF40071D1
:104C20000D48FCF779FE08B1601CC4B200BF002239
:104C30004FF480710848FCF777FE00BFFFF776FF5E
:104C4000701CC6B2082EDEDB15B9FFF7B7FF01E016
:104C5000FFF742FF204670BD000C014070B50446CE
:104C6000002526E000BFE00928B1012251021648C4
:104C7000FCF75AFE05E000224FF400711248FCF7E1
:104C800053FE00BFFFF752FF00BF012211020E4882
:104C9000FCF74AFE00BFFFF749FF00BF00224FF4B8
:104CA00080710948FCF740FE00BF6006040E681CD6
:104CB000C5B2082DD6DB00BF012251020248FCF725
:104CC00033FE00BF70BD0000000C014010B500BFF6
:104CD000012251021048FCF727FE00BF00BF01224D
:104CE00011020D48FCF720FE00BFFFF71FFF00BFB9
:104CF00000224FF400710848FCF716FE00BFFFF7D2
:104D000015FF00BF00224FF480710348FCF70CFE32
:104D100000BFFFF70BFF10BD000C014010B500BF36
:104D200000224FF400710C48FCF7FEFD00BFFFF7B6
:104D3000FDFE00BF012211020748FCF7F5FD00BF90
:104D4000FFF7F4FE00BF012251020348FCF7ECFD1F
:104D500000BFFFF7EBFE10BD000C014070B5002452
:104D6000002500BF012251021548FCF7DDFD00BF00
:104D7000FFF7DCFE00BF012211021148FCF7D4FD51
:104D800000BFFFF7D3FE07E0601CC4B2FA2C03DDBE
:104D9000FFF7C4FF012506E04FF400710848FCF757
:104DA000BBFD0028F0D100BF00BF00224FF480718E
:104DB0000348FCF7B9FD00BFFFF7B8FE284670BDF9
:104DC000000C014008B5FFF73DFEFFF7B5FE00F00F
:104DD00022F9032000F0D7F8002000F0CBF83220B1
:104DE00000F0F7F800223821682000F05BF900227B
:104DF0006A21682000F056F900222321682000F083
:104E000051F980223721682000F04CF96A4675215B
:104E1000682000F05AF89DF80000682801D00120B1
:104E200008BD01226B21682000F03CF900226C21B2
:104E3000682000F037F9322000F0CBF80020EFE7CF
:104E40002DE9F04105460F4614461E46FFF73EFF8A
:104E5000002141EA4501C8B2FFF700FFFFF77EFFDE
:104E6000012804D1FFF75AFF0220BDE8F08138463F
:104E7000FFF7F4FEFFF772FF012803D1FFF74EFFA3
:104E80000220F2E7FFF722FF012101EB4501C8B242
:104E9000FFF7E4FEFFF762FF012803D1FFF73EFFB3
:104EA0000220E2E70BE0012C01DD012100E00021FE
:104EB0000846FFF7A3FE3070601EC4B2761C002CBB
:104EC000F1D1FFF72BFF0020CFE770B505460E4666
:104ED00014462346012231462846FFF7B1FF70BD34
:104EE00070B588B002A905A802F072F80446032C38
:104EF0003ED101A801F0E8FC0598FBF70EFB064641
:104F00000199FBF7B9F90546FBF733FB05900698C5
:104F1000FBF703FB06460199FBF7AEF90546FBF7E5
:104F200028FB06900798FBF7F8FA06460199FBF76D
:104F3000A3F90546FBF71DFB079005A800F05CFCF4
:104F4000684601F06DFCBDF80010029848430290DD
:104F5000BDF80010039848430390BDF80010049872
:104F60004843049002A800F075FB002008B070BD13
:104F70000120FBE710B50446E006020E1C21682064
:104F800000F090F810BD10B50446E006020E1B219B
:104F9000682000F087F810BD70B50546BC2D01DB18
:104FA000012410E0622D01DB02240CE02A2D01DB3C
:104FB000032408E0142D01DB042404E00A2D01DBA6
:104FC000052400E0062422461A21682000F06AF831
:104FD00070BD70B50446B4F57A7F01DD4FF47A7484
:104FE000042C00DA04244FF47A7090FBF4F0401E95
:104FF000C6B232461921682000F054F805460DB1BA
:10500000284670BD6010FFF7C7FF05460DB1284662
:10501000F7E70020F5E710B580226B21682000F04B
:1050200041F8642000F080F800226B21682000F035
:1050300039F810BD2DE9F04105460E461746984651
:10504000FFF744FE002141EA4501C8B2FFF706FE22
:10505000FFF784FE012804D1FFF760FE0220BDE8BF
:10506000F0813046FFF7FAFDFFF778FE012803D103
:10507000FFF754FE0220F2E700240DE018F80400C8
:10508000FFF7ECFDFFF76AFE012803D1FFF746FEAC
:105090000220E4E7601CC4B2BC42EFDBFFF73EFE37
:1050A0000020DCE737B504460D4602AB0122294655
:1050B0002046FFF7BFFF3EBD2DE9F0410446E078F2
:1050C00000F0C006E07800F03F05607800F00100D5
:1050D00098B1EF102846E91705EB5171C910A5EBFF
:1050E000C101491C01F0FF080B48006820B10A48C3
:1050F000414602683846904700BF607800F00800DB
:1051000030B10548406818B1B011034A516888476A
:105110000020BDE8F081000078020020014908600D
:10512000704700000400002010B504464FF47A7167
:1051300004FB01F000F002F810BD000070B503465A
:1051400000224FF0E02675690D4E366803FB06F429
:105150004FF0E026B16910E04FF0E026B0698842D8
:105160000BD0884202D20E1A324402E02E1A0E44AC
:1051700032440146A24200D300E0EDE700BF70BD1B
:105180000400002038B5044664B120208DF80000EA
:1051900028208DF8010030208DF8020038208DF88D
:1051A000030004E0A32204216846FAF7EEFF6A46F2
:1051B000042140F69E2002F03BFA01F025FE38BDA6
:1051C0003EB5044602208DF80000CA208DF801008B
:1051D000E3208DF8020009208DF803006A460421BF
:1051E000682002F025FAA3208DF8000004F04000AA
:1051F00048B1C0208DF80100C8208DF80200C220FF
:105200008DF8030006E0A3208DF801008DF8020060
:105210008DF8030004F4C07048B1C4208DF8040078
:10522000CC208DF80500C6208DF8060006E0A320EE
:105230008DF804008DF805008DF80600A3208DF888
:1052400007008DF808008DF809006A460A2140F62B
:10525000A72002F0EDF904F0030018B120208DF82A
:10526000000002E0D8208DF800006A46012140F6D7
:10527000B62002F0DDF904F0200018B1012000F0A2
:10528000ADF802E0002000F0A9F804F4C07008B303
:1052900004F4807060B1B2208DF800008B208DF88E
:1052A0000100B6208DF802009B208DF803000BE072
:1052B000B0208DF8000080208DF80100B4208DF81A
:1052C000020090208DF803006A46042140F6A220D7
:1052D00002F0AEF904F0010020B3F8208DF80000D0
:1052E0006A4601214FF40B6002F0A2F9FA2107206F
:1052F00000F02EFC072000F0F5FB012000F015FC6B
:10530000642000F0F5FC4FF4FA7000F004FDC821B1
:10531000304800F0A5FB282000F0BEFB0A2000F07A
:10532000CEFB08E0D8208DF800006A4601214FF43A
:105330000B6002F07DF904F0020018B1D9208DF85D
:10534000000002E0D8208DF800006A46012140F2FA
:105350003D7002F06DF904F0040018B1012000F076
:1053600069F802E0002000F065F804F0100018B1C0
:105370000120FFF707FF02E00020FFF703FF44F0E2
:1053800008001549488101F03FFD0020124988734B
:1053900004F0400018B10846807B801D887304F437
:1053A000C07020B10C48807B801D0B49887304F0CD
:1053B000140020B10848807B10300749887304F03E
:1053C000030020B10448807B001D0349887300203E
:1053D0003EBD000009E3CA02780200203EB5044643
:1053E0006CB10EA1D1E900208968CDE900200291BD
:1053F0006A4609214FF4976002F01AF93EBD0AA2ED
:10540000D2E900109268CDE9010200916A460921B3
:105410004FF4976002F00CF9F0E70000B8AAB38DE2
:10542000B4980D355D000000B8AAAAAAB088C3C51B
:10543000C700000038B5044664B1C0208DF80000F4
:10544000C2208DF80100C4208DF80200C6208DF81E
:10545000030004E08B2204216846FAF796FE6A46B0
:10546000042140F6982002F0E3F801F0CDFC38BDAD
:1054700010B5C8234FF48062024940F6F63001F0BF
:1054800057FB10BDDC8000082DE9F04F8DB00746BA
:10549000884615469946DDE9166B002400203080C9
:1054A0006B49887B5A4605A901F00EFC18B1601EB5
:1054B0000DB0BDE8F08F6648807A00F01400002837
:1054C00067D09DF8140000069DF8151040EA0140D1
:1054D0009DF8161040EA01209DF817100843286037
:1054E0009DF8180000069DF8191040EA01409DF84B
:1054F0001A1040EA01209DF81B10084368609DF8CF
:105500001C0000069DF81D1040EA01409DF81E1089
:1055100040EA01209DF81F100843A8609DF8200074
:1055200000069DF8211040EA01409DF8221040EA53
:1055300001209DF823100843E86004F11000C4B274
:10554000286800140190686800140290A86800148C
:105550000390E8680014049001984043029901FB0D
:105560000100039901FB0100049901FB010ABAF152
:10557000706F02DBBAF1885F05DD01F045FC0020A9
:105580003080401E94E7B6F9000040F4807030800F
:1055900000BF2F48807A00F0400020B305A9601CAE
:1055A000085C095D40EA012000B2A8F8000005A9E6
:1055B000E01C095C05AAA01C105C41EA002000B2B6
:1055C000A8F8020005A9601D095C201D105C41EAD5
:1055D000002000B2A8F80400A01DC4B2B6F9000073
:1055E00040F0080030801A48408900F4C07008B3C9
:1055F00005A9601C085C095D40EA012000B2388002
:1056000005A9E01C095C05AAA01C105C41EA002069
:1056100000B2788005A9601D095C201D105C41EA7C
:10562000002000B2B880A01DC4B2B6F9000040F05E
:10563000700030800648807A00F0030018B105A998
:105640000819FFF739FD4846FFF7F2F900202FE768
:105650007802002070B588B0064601A801F0E0F895
:10566000BDF804000021C90341EA5045C40300BF4E
:105670004448007A00F0030056F8200005904148A5
:10568000007A00F0040010B10598404205903D48B2
:10569000007AC0F3C10056F8200006903948007A1D
:1056A00000F0200010B10698404206903548007A7C
:1056B000C0F3811056F8200007903248008900F4AA
:1056C000807010B10798404207900598C117A0FB61
:1056D000042301FB043100FB0510810041EA9270B4
:1056E00005900698C117A0FB042301FB043100FBC1
:1056F0000510810041EA927006900798C117A0FB3F
:10570000042301FB043100FB0510810041EA927083
:1057100007900598000E8DF808000598000C8DF88C
:1057200009000598000A8DF80A000598C0B28DF8A6
:105730000B000698000E8DF80C000698000C8DF8F2
:105740000D000698000A8DF80E000698C0B28DF87C
:105750000F000798000E8DF810000798000C8DF8C8
:1057600011000798000A8DF812000798C0B28DF852
:10577000130002AA0C214FF4257001F059FF08B064
:1057800070BD00007802002030B585B0044616A236
:1057900007CA02AB07C3C82C03DD4FF0FF3005B0CA
:1057A00030BDC82090FBF4F0401E85B2280A8DF869
:1057B0000000E8B28DF801006A46022140F216208E
:1057C00001F036FF10B14FF0FF30E8E702AA0C21DC
:1057D00040F6C12001F02CFF10B14FF0FF30DEE7A2
:1057E000044884810020DAE7FEF2ABC4AAF1DFDFCF
:1057F000BBAFDFDF780200201FB504464848007ABF
:1058000000F0030054F8200001904548007A00F0B1
:10581000040010B10198404201904148007AC0F361
:10582000C10054F8200002903D48007A00F02000AA
:1058300010B10298404202903948007AC0F38110BA
:1058400054F8200003903648008900F4807010B1AD
:105850000398404203903349019880FB0101800F77
:1058600040EA810001902F49029880FB01108200DC
:1058700042EA917002902B49039880FB011082004C
:1058800042EA917003900198000E8DF80000019893
:10589000000C8DF801000198000A8DF802000198B3
:1058A000C0B28DF803006A4604214FF4747001F011
:1058B000BFFE18B14FF0FF3004B010BD0298000ECB
:1058C0008DF800000298000C8DF801000298000A83
:1058D0008DF802000298C0B28DF803006A460421D8
:1058E0004FF4757001F0A4FE10B14FF0FF30E3E704
:1058F0000398000E8DF800000398000C8DF801004D
:105900000398000A8DF802000398C0B28DF80300D6
:105910006A4604214FF4767001F08AFECCE700005D
:105920007802002009E3CA0210B586B0044647A0F9
:105930000068039046A00068029046A000680190AD
:1059400045A00068009004F0030003A9085C8DF8EE
:10595000140003A8C4F3C101405C8DF8150003A82E
:10596000C4F38111405C8DF8160004F0030002A915
:10597000085C8DF8100002A8C4F3C101405C8DF8EA
:10598000110002A8C4F38111405C8DF8120005AA31
:10599000032140F2264001F04BFE18B14FF0FF30DA
:1059A00006B010BD04AA032140F22A4001F040FED7
:1059B00010B14FF0FF30F3E7019805900098049084
:1059C00004F0040058B19DF8140040F001008DF877
:1059D00014009DF8100040F001008DF8100004F054
:1059E000200058B19DF8150040F001008DF8150019
:1059F0009DF8110040F001008DF8110004F4807052
:105A000058B19DF8160040F001008DF816009DF881
:105A1000120040F001008DF8120005AA03214FF496
:105A2000886001F005FE10B14FF0FF30B8E704AA1E
:105A3000032140F2314001F0FBFD10B14FF0FF3087
:105A4000AEE7064804810020AAE700004CCD6C00B8
:105A50000CC92C00365676002646660078020020D7
:105A6000F8B505460E464FF47A7095FBF0F000FB52
:105A700006F4200E8DF80000200C8DF80100200A9D
:105A80008DF80200E0B28DF803006A4604214FF45D
:105A9000AE7001F0CDFDF8BD38B50446052094FB8D
:105AA000F0F084B220128DF80000E0B28DF8010011
:105AB0006A4602214FF4AD7001F0BAFD38BD38B529
:105AC0000446052094FBF0F084B220128DF800000B
:105AD000E0B28DF801006A4602214FF4AC7001F08B
